:020000040800F2
:1000000000200020CD020008C9020008C902000833
:10001000C9020008C9020008C90200080000000067
:10002000000000000000000000000000C9020008FD
:10003000C902000800000000C902000845050008C8
:10004000C9020008C9020008C9020008C902000864
:10005000C9020008C9020008C9020008C902000854
:10006000C9020008C9020008C9020008C902000844
:10007000C9020008C9020008C9020008C902000834
:10008000C9020008C9020008C902000800000000F7
:10009000000000000000000000000000C90200088D
:1000A000C9020008C9020008C9020008C902000804
:1000B000C9020008C9020008C9020008C9020008F4
:1000C000C9020008C9020008C9020008C9020008E4
:1000D000C9020008C9020008C9020008C9020008D4
:1000E000C9020008C9020008C9020008C9020008C4
:1000F000C9020008C902000800000000C902000887
:10010000C902000800000000C9020008C902000876
:10011000C9020008C9020008C9020008C902000893
:10012000C9020008C9020008C9020008C902000883
:10013000C9020008000000000000000000000000EC
:1001400000000000000000000000000000000000AF
:10015000000000000000000000000000000000009F
:10016000000000000000000000000000000000008F
:10017000000000000000000000000000000000007F
:10018000000000000000000000000000000000006F
:10019000000000000000000000000000000000005F
:1001A000000000000000000000000000000000004F
:1001B000000000000000000000000000000000003F
:1001C0000000000000000000000000005FF808F1DF
:1001D0000348044B834202D0034B03B118477047D6
:1001E000680400206804002000000000054806495B
:1001F0000B1AD90F01EBA301491002D0034B03B135
:1002000018477047680400206804002000000000C0
:1002100010B5064C237843B9FFF7DAFF044B13B14E
:100220000448AFF300800123237010BD6C0400204C
:1002300000000000D419000808B5044B1BB10449A4
:100240000448AFF30080BDE80840CFE7000000009D
:1002500070040020D4190008A3F5803A704700BF4D
:10026000154B002B08BF114B9D46FFF7F5FF0021F2
:100270008B460F461148124A121A01F02DFA0C4B08
:10028000002B00D098470B4B002B00D09847002044
:10029000002104000D000B4801F0EEF900F015F804
:1002A0002000290000F004F901F0ECF9000008003A
:1002B0000000000000000000000000006C040020AE
:1002C00090040020A5160008FEE7704708B5144A00
:1002D000144B9A420DD21146013B9B1A23F00303A3
:1002E0000433114A134452F8040B41F8040B9A42A8
:1002F000F9D10E4A0E4B9A420AD2013B9B1A23F0C7
:10030000030304331344002142F8041B9A42FBD137
:1003100000F010F8FFF7D9FF00F0CAF8FEE700BFC1
:100320000000002060040020E01900086C04002098
:100330009004002082B0344B1A6842F001021A6027
:100340005968324A0A405A601A6822F0847222F4CC
:1003500080321A601A6822F480221A605A6822F4E5
:10036000FE025A604FF41F029A600022DA62009285
:1003700001921A6842F480321A601A46136803F434
:1003800000330193009B01330093019B1BB9009B39
:10039000B3F5A06FF2D11C4B1B6813F4003F14BFE0
:1003A000012300230193019B012B05D0184B4FF033
:1003B00000629A6002B07047134B5A685A605A68DC
:1003C0005A605A685A605A6822F47C125A605A6815
:1003D00042F498125A601A6842F080721A601A4603
:1003E000136813F0007FFBD0074B5A6822F003021A
:1003F0005A605A6842F002025A601A46536803F083
:100400000C03082BFAD1D1E7001002400000FFF8DE
:1004100000ED00E01D4B5B6803F00C03042B15D0CE
:10042000082B17D01BB11A4B1A4A1A6002E0184B5E
:10043000184A1A60154B5B68C3F30313144A13443C
:100440001B79D9B21368CB4013607047104B114A27
:100450001A60EFE70D4A53685268C3F383430233CF
:1004600012F4803F05D10C4A02FB03F3084A1360E3
:10047000E0E7064AD26A02F00F0201320549B1FBF9
:10048000F2F203FB02F3024A1360D3E700100240CA
:100490000400002000127A0000093D00034B1860A0
:1004A0001A461368002BFCD1704700BF8804002057
:1004B00000B583B00121102000F08EFF01A800F0EC
:1004C00063F94FF40073ADF8043010238DF8073052
:1004D00002238DF8063001A9144800F0AFF8144B40
:1004E0001B68144AA2FB03239B09013B124A536079
:1004F000124BF02183F8231000239360072313602D
:100500000F4C0A4E4FF400756268003A18BF012282
:100510002946304600F0ACFA6368C3F1010363601A
:100520004FF47A70FFF7BAFFEEE700BF001001400A
:1005300004000020D34D621010E000E000ED00E068
:1005400088040020034B1B681BB1024A1368013B5F
:100550001360704788040020FEE700BF08B5304BE9
:10056000984254D003F58063984218D003F5806315
:1005700098421DD003F58063984222D003F5806332
:10058000984227D003F5806398422CD003F580630E
:10059000984231D06F212348FFF7DEFF3FE0012171
:1005A000082000F065FF0021082000F061FF36E020
:1005B0000121102000F05CFF0021102000F058FF06
:1005C0002DE00121202000F053FF0021202000F029
:1005D0004FFF24E00121402000F04AFF002140208D
:1005E00000F046FF1BE00121802000F041FF0021C8
:1005F000802000F03DFF12E001214FF4807000F0F8
:1006000037FF00214FF4807000F032FF07E0012136
:10061000042000F02DFF0021042000F029FF08BD78
:10062000000801409C18000808B50121084600F0A8
:100630001FFF0021012000F01BFF08BDF8B5054693
:100640000C464F4B98421BD003F58063984217D05D
:1006500003F58063984213D003F5806398420FD06E
:1006600003F5806398420BD003F58063984207D06E
:1006700003F58063984203D0B2214248FFF76CFF34
:10068000E37813F0FB0274D0282B72D0482B70D083
:10069000102A01D0182A04D1228803F00F0692B93B
:1006A00005E0B3213748FFF757FF23881BB9B42172
:1006B0003448FFF751FFE37803F00F0613F0100FF3
:1006C00008BF304607D0A378013BDBB2022B0AD823
:1006D000A37846EA0300237823B32E68002301277A
:1006E0004FF00F0E0AE0BB212648FFF735FFEFE77A
:1006F000482908BF2A610133082B12D007FA03F2F8
:10070000218832EA0101F6D199000EFA01FC26EAAD
:100710000C0600FA01F10E43E1782829E8D16A615C
:10072000E9E72E602388FF2B22D96F6808234FF05A
:10073000010C4FF00F0E02E00133102B17D00CFA12
:1007400003F1268831EA0602F6D19A00203A0EFA21
:1007500002F627EA060700FA02F21743E278282A8F
:1007600008BF6961E278482A08BF2961E4E76F6041
:10077000F8BD2288002A9AD003F00F00ABE700BF33
:10078000000801409C1800084FF6FF730380022305
:1007900083700423C370704738B504460D46294B57
:1007A00098421CD003F58063984218D003F580630B
:1007B000984214D003F58063984210D003F580630B
:1007C00098420CD003F58063984208D003F580630B
:1007D000984204D04FF48F711B48FFF7BDFE6B1E8B
:1007E0009BB21F2B0BD8194A22FA03F313F0010F07
:1007F00021D0A3681D4214BF0120002038BD402D28
:10080000F7D0802DF5D0B5F5807FF2D0B5F5007F1B
:10081000EFD0B5F5806FECD0B5F5006FE9D0B5F548
:10082000805FE6D0B5F5005FE3D0B5F5804FE0D04E
:10083000B5F5004FDDD040F21F110348FFF78CFEE5
:10084000D7E700BF000801409C1800088B8000809B
:1008500010B50446114B98421CD003F580639842B2
:1008600018D003F58063984214D003F58063984252
:1008700010D003F5806398420CD003F58063984252
:1008800008D003F58063984204D04FF49A7104486D
:10089000FFF762FEA06880B210BD00BF00080140F3
:1008A0009C18000838B504460D46294B98421CD0C8
:1008B00003F58063984218D003F58063984214D002
:1008C00003F58063984210D003F5806398420CD002
:1008D00003F58063984208D003F58063984204D002
:1008E0004FF4A2711B48FFF737FE6B1E9BB21F2B04
:1008F0000BD8194A22FA03F313F0010F21D0E36851
:100900001D4214BF0120002038BD402DF7D0802D9E
:10091000F5D0B5F5807FF2D0B5F5007FEFD0B5F515
:10092000806FECD0B5F5006FE9D0B5F5805FE6D00B
:10093000B5F5005FE3D0B5F5804FE0D0B5F5004FD9
:10094000DDD040F245110348FFF706FED7E700BFB0
:10095000000801409C1800088B80008010B50446F8
:10096000114B98421CD003F58063984218D003F5D0
:100970008063984214D003F58063984210D003F549
:10098000806398420CD003F58063984208D003F549
:100990008063984204D04FF4AD710448FFF7DCFD4A
:1009A000E06880B210BD00BF000801409C1800083C
:1009B00038B504460D46144B98421CD003F58063AD
:1009C000984218D003F58063984214D003F58063F1
:1009D000984210D003F5806398420CD003F58063F1
:1009E000984208D003F58063984204D040F2691120
:1009F0000648FFF7B1FD0DB1256138BD4FF4B57163
:100A00000248FFF7A9FDF7E7000801409C1800081D
:100A100038B504460D46144B98421CD003F580634C
:100A2000984218D003F58063984214D003F5806390
:100A3000984210D003F5806398420CD003F5806390
:100A4000984208D003F58063984204D040F27911AF
:100A50000648FFF781FD0DB1656138BD4FF4BD71EA
:100A60000248FFF779FDF7E7000801409C180008ED
:100A700070B504460D4616462B4B98421CD003F524
:100A80008063984218D003F58063984214D003F530
:100A90008063984210D003F5806398420CD003F530
:100AA0008063984208D003F58063984204D040F2F6
:100AB0008D111E48FFF750FD6B1E9BB21F2B11D8E6
:100AC0001B4A22FA03F313F0010F27D0012E02D89C
:100AD00036B9656105E040F28F111448FFF73CFD1F
:100AE000256170BD402DF1D0802DEFD0B5F5807F10
:100AF000ECD0B5F5007FE9D0B5F5806FE6D0B5F55F
:100B0000006FE3D0B5F5805FE0D0B5F5005FDDD0D4
:100B1000B5F5804FDAD0B5F5004FD7D04FF4C77197
:100B20000248FFF719FDD1E7000801409C180008B2
:100B30008B80008038B504460D46114B98421CD07E
:100B400003F58063984218D003F58063984214D06F
:100B500003F58063984210D003F5806398420CD06F
:100B600003F58063984208D003F58063984204D06F
:100B70004FF4D2710348FFF7EFFCE56038BD00BFCA
:100B8000000801409C18000838B504460D46174B74
:100B900098421CD003F58063984218D003F5806317
:100BA000984214D003F58063984210D003F5806317
:100BB00098420CD003F58063984208D003F5806317
:100BC000984204D040F2B5110948FFF7C5FC3DB189
:100BD00045F48033A361A561A361A369A36938BD0E
:100BE0004FF4DB710248FFF7B7FCF1E70008014062
:100BF0009C18000838B504460D4604280DD80F2D62
:100C000011D80C4A136823F07F031B041B0C43EA22
:100C1000050141EA0411116038BD4FF4E97106483D
:100C2000FFF79AFCEBE740F2D3110348FFF794FC7F
:100C3000E7E700BF000001409C18000810B504461B
:100C4000012802D8044B1C6010BD4FF4F371034817
:100C5000FFF782FCF6E700BF1C0020429C1800084A
:100C600070B504460D46431E012B40F2888020F4E7
:100C70000013042B2FD0082B2DD020F020025A4B2C
:100C80009A4228D020F08002584B9A4223D020F478
:100C90000072574B9A421ED003F5807398421AD0C7
:100CA00020F48062534B9A4215D0B0F5805F12D089
:100CB00020F40053B3F5EA1F0DD0B0F5004F0AD071
:100CC000A0F50013013B1F2B66D84B4A22FA03F311
:100CD00013F0010F78D0012D53D82146474B5B68A4
:100CE000A2B204F44010B0F5401F0BD014F4801FE2
:100CF0001AD0C4F303460320B04023EA000343F0B4
:100D0000706306E023F070633C4E706820F0706002
:100D100070601DB1640D2401A24013430029374ABD
:100D2000B4BFD361536070BD600D000102FA00F0E2
:100D300023EA000343F07063EBE7314B9C424ED053
:100D4000304B9C424BD080339C4248D003F580739B
:100D50009C4244D003F500739C4240D003F580636D
:100D60009C423CD003F500639C4238D003F580538D
:100D70009C4234D040F22A212348FFF7EDFB012D9D
:100D800004D940F22B212048FFF7E6FB2146002C36
:100D9000A4DA1A4BDB69A3E71C4B98429BD01C4B8F
:100DA0009C4298D003F580739C4294D003F5007365
:100DB0009C4290D0174B9C428DD003F570639C42AF
:100DC00089D0B4F5011F86D004F10043013B1F2BED
:100DD000B3D8114A22FA03F313F0010FCAD0012D40
:100DE000CFD82146D5E700BF100014004000160000
:100DF0000001180000081A00038000800000014074
:100E000040000080800000809C1800084000200006
:100E100000013000001120008B80008038B50546AD
:100E20000C46062815D80F2C19D804F003008000B2
:100E300004F0FC0101F1804101F580318B680F2243
:100E4000824023EA02038B608B6885401D438D60DE
:100E500038BD40F265210548FFF77EFBE3E740F22D
:100E600066210248FFF778FBDFE700BF9C18000807
:100E700010B50446012802D8044B1C6010BD4FF485
:100E80001E710348FFF768FBF6E700BFDC00204255
:100E90009C1800080E4B1A6842F001021A6059684B
:100EA0000C4A0A405A601A6822F0847222F4803296
:100EB0001A601A6822F480221A605A6822F4FE022C
:100EC0005A604FF41F029A600022DA62704700BF36
:100ED000001002400000FFF808B5002830D0B0F53F
:100EE000803F1FD0B0F5802F0DD11A4B1A6822F425
:100EF00080321A601A6822F480221A601A6842F45A
:100F0000A0221A6025E040F211111348FFF724FBDC
:100F1000104B1A6822F480321A601A6822F4802278
:100F20001A6016E00B4B1A6822F480321A601A68B5
:100F300022F480221A601A6842F480321A6008E0B3
:100F4000044B1A6822F480321A601A6822F4802254
:100F50001A6008BD001002402C19000810B50446A4
:100F60001F2807D8064A136823F0F80343EAC4038E
:100F7000136010BD4FF4A9710248FFF7EDFAF1E7D5
:100F8000001002402C19000810B50446012802D8B0
:100F9000044B1C6010BD40F265110348FFF7DCFAFA
:100FA000F6E700BF000042422C19000838B504469D
:100FB0000D4630F4803304D040F27F111448FFF71F
:100FC000CBFA35F4802314D0B3F5002F11D0B3F54C
:100FD000801F0ED0B3F5C01F0BD0B3F5001F08D093
:100FE000B3F5201F05D0B3F5401F02D0B5F5601F43
:100FF00007D1084B596821F474110D432C435C60F0
:1010000038BD4FF4C0710248FFF7A6FAF1E700BF00
:101010002C1900080010024010B50446012802D81F
:10102000044B1C6010BD4FF4CA710348FFF794FADB
:10103000F6E700BF600042422C19000838B50C46A4
:10104000054658B90F2C0FD80A4AD36A23F48033C7
:1010500023F00F0323432B43D36238BD40F2AF117B
:101060000548FFF779FAEDE74FF4D8710248FFF72A
:1010700073FAE9E7001002402C19000810B5044685
:10108000022806D8064B586820F0030004435C6031
:1010900010BD4FF40E710348FFF75EFAF2E700BF90
:1010A000001002402C190008024B586800F00C0098
:1010B000704700BF0010024010B5044630F08003B6
:1010C0000DD020F02003902B09D020F04003A02B5E
:1010D00005D020F01003C02B01D0F02806D1064B1C
:1010E000586820F0F00004435C6010BD4FF41971A3
:1010F0000248FFF731FAF2E7001002402C1900080D
:1011000010B5044630F480630CD020F40073B3F5BE
:10111000A06F07D0B0F5C06F04D040F27E21054823
:10112000FFF71AFA044B586820F4E06004435C604F
:1011300010BD00BF2C1900080010024010B5044675
:1011400030F480630CD020F40073B3F5A06F07D0A7
:10115000B0F5C06F04D04FF426710548FFF7FCF9D5
:10116000044A536823F4605343EAC403536010BD38
:101170002C1900080010024038B504460D4610F046
:10118000E00F00D120B940F2BF210B48FFF7E4F98E
:10119000012D06D855B9094B187820EA04041C70B3
:1011A00008E04FF430710448FFF7D6F9034B187884
:1011B00004431C7038BD00BF2C1900080910024000
:1011C00010B50446012802D8044B1C6010BD40F243
:1011D000DB210348FFF7C0F9F6E700BFD800424221
:1011E0002C19000810B5044630F4804307D0B3F53D
:1011F000004F04D040F202310448FFF7ADF9044B30
:10120000586820F4404004435C6010BD2C1900086D
:101210000010024008B5012813D9042807D10F4B4C
:1012200000221A701A700D4B05221A7015E04FF447
:1012300050710B48FFF790F9084B00221A701A7092
:101240000BE0064B00221A701A70012803D1034BE1
:1012500001221A7001E00428E5D008BD20100240E8
:101260002C19000810B50446012802D8044B1C6054
:1012700010BD40F261310348FFF76EF9F6E700BF99
:10128000800442422C19000810B5044620F4007373
:10129000B3F5807F07D0B0F5007F04D040F2723103
:1012A0000348FFF759F9034B186A04431C6210BD49
:1012B0002C1900080010024010B50446012802D87D
:1012C000044B1C6010BD4FF460710348FFF744F9F4
:1012D000F6E700BF3C0442422C19000810B4274B2B
:1012E0005B6803F00C03042B2BD0082B2CD013B11C
:1012F000234B036001E0224B0360204C6368C3F37F
:101300000313204AD35CD9B20368CB4043606168C1
:10131000C1F30221515CC9B223FA01F18160616815
:10132000C1F3C221515CC9B2CB40C3606168C1F353
:1013300081310A44127CD2B2B3FBF2F3036110BCD8
:1013400070470F4B0360D8E70C4A53685268C3F3E9
:101350008343023312F4803F04D10B4A02FB03F3B0
:101360000360CAE7054AD26A02F00F02013204495B
:10137000B1FBF2F203FB02F30360BEE70010024090
:1013800000127A001800002000093D0038B504461C
:101390000D4620F4AA6323F0070303B920B940F2F5
:1013A0002B410B48FFF7D8F8012D06D855B9094B4A
:1013B000586920EA04045C6108E040F22C410448CA
:1013C000FFF7CAF8034B586904435C6138BD00BF9E
:1013D0002C1900080010024038B504460D460E4B8B
:1013E000034003B920B940F24A410C48FFF7B4F872
:1013F000012D06D855B90A4B986920EA04049C616E
:1014000008E040F24B410548FFF7A6F8044B986905
:1014100004439C6138BD00BF0200C0FF2C190008C6
:101420000010024038B504460D460E4B184200D15C
:1014300020B940F269410C48FFF78EF8012D06D81B
:1014400055B90A4BD86920EA0404DC6108E040F28F
:101450006A410548FFF780F8044BD8690443DC6112
:1014600038BD00BF003601812C1900080010024071
:1014700038B504460D460E4B034003B920B940F27F
:10148000A4410C48FFF768F8012D06D855B90A4B5E
:10149000D86820EA0404DC6008E040F2A541054871
:1014A000FFF75AF8044BD8680443DC6038BD00BF2E
:1014B0000200C0FF2C1900080010024038B5044695
:1014C0000D460E4B184200D120B940F2C3410C48E2
:1014D000FFF742F8012D06D855B90A4B186920EAE2
:1014E00004041C6108E040F2C4410548FFF734F8E9
:1014F000044B186904431C6138BD00BF00360181EC
:101500002C1900080010024010B50446012802D82A
:10151000044B1C6010BD4FF49B610348FFF71CF89F
:10152000F6E700BF400442422C19000810B50446FB
:10153000012802D8044B1C6010BD40F2E54103486D
:10154000FFF70AF8F6E700BF4C0042422C190008EA
:1015500010B5044640B1031FDBB2032B04D940F29F
:1015600005510348FEF7F8FF024B1C7010BD00BF89
:101570002C1900080710024010B5044600F0EF03D4
:10158000212B1CD039281AD041281BD061280ED01D
:10159000A0F17A03DBB2052B09D940F234510B4894
:1015A000FEF7DAFF6309012B09D0022B0AD0084BA2
:1015B000586A04F01F04E04000F0010010BD044B25
:1015C0001868F6E7024B186AF3E700BF2C19000809
:1015D0000010024010B582B0002301933124204650
:1015E000FFF7CAFF019B01330193019BB3F5A06F85
:1015F00001D00028F3D03120FFF7BEFF003818BF1C
:10160000012002B010BD034A536A43F08073536255
:10161000704700BF0010024010B5044610280AD8D9
:10162000094BC34013F0010F07D140F27E51074828
:10163000FEF792FF01E08028F7D1054B9B681C4222
:1016400014BF0120002010BD160101002C19000854
:101650000010024010B5044610F0600F00D120B910
:1016600040F2AB510248FEF777FF024B1C7010BDF1
:101670002C1900080A100240002301461A46184699
:1016800000F07AB808B50021044600F0A7F8044B32
:101690001868C36B03B19847204600F0F9F800BF03
:1016A0009818000838B50A4C0A4D641BA4100AD0DB
:1016B00004F18043013B05EB8305013C55F80439F7
:1016C0009847002CF9D1BDE8384000F07DB900BF43
:1016D0000000000000000000F0B4860746D0541E51
:1016E000002A3CD0CAB2034602E014F1FF3436D3DC
:1016F00003F8012B9D07F8D1032C29D9CDB245EA77
:1017000005250F2C45EA054533D9A4F11006360905
:1017100003F1200707EB061703F1100242E9045515
:1017200042E902551032BA42F8D1721C14F00C0F83
:1017300003EB021204F00F0613D0331F23F0030350
:101740000433134442F8045B9342FBD106F00304D4
:101750002CB1C9B21C4403F8011B9C42FBD1F0BC64
:10176000704734461346002CF3D1F8E7144603467D
:10177000C2E71A462646E0E7F0B4174C2568D5F8CC
:1017800048410CB365681F2D23DC38B900206B1C61
:101790000235636044F82510F0BC7047012604EB65
:1017A000850CCCF88820D4F8887106FA05F2174326
:1017B0000228C4F88871CCF80831E7D1D4F88C310C
:1017C0001A43C4F88C21E1E705F5A674C5F8484131
:1017D000D8E74FF0FF30DFE7981800082DE9F04F09
:1017E0008A464FF00008234B83B0D3F800B0019035
:1017F000DBF8486196B17468651E0FD401273C443C
:1018000006EB8404BAF1000F0BD0D4F80031534535
:1018100007D0013D6B1CA4F10404F3D103B0BDE873
:10182000F08F73682268013BAB420CBF7560C4F84F
:101830000080002AEDD0D6F8881107FA05FC1CEAD2
:10184000010FD6F8049008D1904772684A45CFD16D
:10185000DBF84831B342DCD0CAE7D6F88C31D4F893
:1018600080101CEA030F02D101989047EDE708466B
:101870009047EAE798180008024B13B10248FFF7B7
:10188000FBBE704700000000A51600080000000025
:101890005FF800F091040020380000202F686F6D81
:1018A000652F636F6E6E65722F446F63756D656E25
:1018B00074732F50726F6A656374732F53544D3372
:1018C000322F53544D3332463130782F53544D33E9
:1018D00032463130785F5374616E646172645F5078
:1018E00065726970686572616C5F4C696272617281
:1018F000792F4C69627261726965732F53544D334D
:1019000032463130785F5374645065726970685F35
:101910004472697665722F7372632F73746D3332FC
:10192000663130785F6770696F2E63002F686F6D66
:10193000652F636F6E6E65722F446F63756D656E94
:1019400074732F50726F6A656374732F53544D33E1
:10195000322F53544D3332463130782F53544D3358
:1019600032463130785F5374616E646172645F50E7
:1019700065726970686572616C5F4C6962726172F0
:10198000792F4C69627261726965732F53544D33BC
:1019900032463130785F5374645065726970685FA5
:1019A0004472697665722F7372632F73746D33326C
:0B19B000663130785F7263632E6300C5
:0C19BC00F8B500BFF8BC08BC9E467047A0
:0C19C800F8B500BFF8BC08BC9E46704794
:0419D400000000000F
:0819D80080E8FF7F0100000020
:1019E0000000000000366E01000000000000000052
:1019F00001020304060708090000000001020304B5
:101A0000010203040607080902040608000000009A
:101A10003800002000000000000000002403002027
:101A20008C030020F40300200000000000000000F0
:101A300000000000000000000000000000000000A6
:101A40000000000000000000000000000000000096
:101A50000000000000000000000000000000000086
:101A60000000000000000000000000000000000076
:101A70000000000000000000000000000000000066
:101A80000000000000000000000000000000000056
:101A90000000000000000000000000000000000046
:101AA0000000000000000000000000000000000036
:101AB0000000000000000000000000000000000026
:101AC00001000000000000000E33CDAB34126DE6C3
:101AD000ECDE05000B00000000000000000000002C
:101AE00000000000000000000000000000000000F6
:101AF00000000000000000000000000000000000E6
:101B000000000000000000000000000000000000D5
:101B100000000000000000000000000000000000C5
:041E4000390200085B
:041E4400110200087F
:041E480079180008FD
:04000005080002CD20
:00000001FF
